{"contracts/Sub.sol":{"Sub":{"abi":[{"inputs":[{"internalType":"uint256","name":"a","type":"uint256"},{"internalType":"uint256","name":"b","type":"uint256"}],"name":"subtract","outputs":[{"internalType":"uint256","name":"res","type":"uint256"}],"stateMutability":"pure","type":"function"}],"evm":{"bytecode":{"linkReferences":{},"object":"6080604052348015600f57600080fd5b506101d18061001f6000396000f3fe608060405234801561001057600080fd5b506004361061002b5760003560e01c80633ef5e44514610030575b600080fd5b61004a600480360381019061004591906100ce565b610060565b604051610057919061011d565b60405180910390f35b6000610075828461007d90919063ffffffff16565b905092915050565b6000818361008b9190610167565b905092915050565b600080fd5b6000819050919050565b6100ab81610098565b81146100b657600080fd5b50565b6000813590506100c8816100a2565b92915050565b600080604083850312156100e5576100e4610093565b5b60006100f3858286016100b9565b9250506020610104858286016100b9565b9150509250929050565b61011781610098565b82525050565b6000602082019050610132600083018461010e565b92915050565b7f4e487b7100000000000000000000000000000000000000000000000000000000600052601160045260246000fd5b600061017282610098565b915061017d83610098565b925082820390508181111561019557610194610138565b5b9291505056fea26469706673582212205bd00676e24cb6bfdba719b43986548b6c2bc2f01243feb0ec0b1dc6a1b643ca64736f6c634300081b0033","opcodes":"PUSH1 0x80 PUSH1 0x40 MSTORE CALLVALUE DUP1 ISZERO PUSH1 0xF JUMPI PUSH1 0x0 DUP1 REVERT JUMPDEST POP PUSH2 0x1D1 DUP1 PUSH2 0x1F PUSH1 0x0 CODECOPY PUSH1 0x0 RETURN INVALID PUSH1 0x80 PUSH1 0x40 MSTORE CALLVALUE DUP1 ISZERO PUSH2 0x10 JUMPI PUSH1 0x0 DUP1 REVERT JUMPDEST POP PUSH1 0x4 CALLDATASIZE LT PUSH2 0x2B JUMPI PUSH1 0x0 CALLDATALOAD PUSH1 0xE0 SHR DUP1 PUSH4 0x3EF5E445 EQ PUSH2 0x30 JUMPI JUMPDEST PUSH1 0x0 DUP1 REVERT JUMPDEST PUSH2 0x4A PUSH1 0x4 DUP1 CALLDATASIZE SUB DUP2 ADD SWAP1 PUSH2 0x45 SWAP2 SWAP1 PUSH2 0xCE JUMP JUMPDEST PUSH2 0x60 JUMP JUMPDEST PUSH1 0x40 MLOAD PUSH2 0x57 SWAP2 SWAP1 PUSH2 0x11D JUMP JUMPDEST PUSH1 0x40 MLOAD DUP1 SWAP2 SUB SWAP1 RETURN JUMPDEST PUSH1 0x0 PUSH2 0x75 DUP3 DUP5 PUSH2 0x7D SWAP1 SWAP2 SWAP1 PUSH4 0xFFFFFFFF AND JUMP JUMPDEST SWAP1 POP SWAP3 SWAP2 POP POP JUMP JUMPDEST PUSH1 0x0 DUP2 DUP4 PUSH2 0x8B SWAP2 SWAP1 PUSH2 0x167 JUMP JUMPDEST SWAP1 POP SWAP3 SWAP2 POP POP JUMP JUMPDEST PUSH1 0x0 DUP1 REVERT JUMPDEST PUSH1 0x0 DUP2 SWAP1 POP SWAP2 SWAP1 POP JUMP JUMPDEST PUSH2 0xAB DUP2 PUSH2 0x98 JUMP JUMPDEST DUP2 EQ PUSH2 0xB6 JUMPI PUSH1 0x0 DUP1 REVERT JUMPDEST POP JUMP JUMPDEST PUSH1 0x0 DUP2 CALLDATALOAD SWAP1 POP PUSH2 0xC8 DUP2 PUSH2 0xA2 JUMP JUMPDEST SWAP3 SWAP2 POP POP JUMP JUMPDEST PUSH1 0x0 DUP1 PUSH1 0x40 DUP4 DUP6 SUB SLT ISZERO PUSH2 0xE5 JUMPI PUSH2 0xE4 PUSH2 0x93 JUMP JUMPDEST JUMPDEST PUSH1 0x0 PUSH2 0xF3 DUP6 DUP3 DUP7 ADD PUSH2 0xB9 JUMP JUMPDEST SWAP3 POP POP PUSH1 0x20 PUSH2 0x104 DUP6 DUP3 DUP7 ADD PUSH2 0xB9 JUMP JUMPDEST SWAP2 POP POP SWAP3 POP SWAP3 SWAP1 POP JUMP JUMPDEST PUSH2 0x117 DUP2 PUSH2 0x98 JUMP JUMPDEST DUP3 MSTORE POP POP JUMP JUMPDEST PUSH1 0x0 PUSH1 0x20 DUP3 ADD SWAP1 POP PUSH2 0x132 PUSH1 0x0 DUP4 ADD DUP5 PUSH2 0x10E JUMP JUMPDEST SWAP3 SWAP2 POP POP JUMP JUMPDEST PUSH32 0x4E487B7100000000000000000000000000000000000000000000000000000000 PUSH1 0x0 MSTORE PUSH1 0x11 PUSH1 0x4 MSTORE PUSH1 0x24 PUSH1 0x0 REVERT JUMPDEST PUSH1 0x0 PUSH2 0x172 DUP3 PUSH2 0x98 JUMP JUMPDEST SWAP2 POP PUSH2 0x17D DUP4 PUSH2 0x98 JUMP JUMPDEST SWAP3 POP DUP3 DUP3 SUB SWAP1 POP DUP2 DUP2 GT ISZERO PUSH2 0x195 JUMPI PUSH2 0x194 PUSH2 0x138 JUMP JUMPDEST JUMPDEST SWAP3 SWAP2 POP POP JUMP INVALID LOG2 PUSH5 0x6970667358 0x22 SLT KECCAK256 JUMPDEST 0xD0 MOD PUSH23 0xE24CB6BFDBA719B43986548B6C2BC2F01243FEB0EC0B1D 0xC6 LOG1 0xB6 NUMBER 0xCA PUSH5 0x736F6C6343 STOP ADDMOD SHL STOP CALLER "},"methodIdentifiers":{"subtract(uint256,uint256)":"3ef5e445"}}}}}