{
  "_format": "hh-sol-artifact-1",
  "contractName": "Add",
  "sourceName": "contracts/Add.sol",
  "abi": [
    {
      "inputs": [
        {
          "internalType": "uint256",
          "name": "a",
          "type": "uint256"
        },
        {
          "internalType": "uint256",
          "name": "b",
          "type": "uint256"
        }
      ],
      "name": "addNumber",
      "outputs": [
        {
          "internalType": "uint256",
          "name": "res",
          "type": "uint256"
        }
      ],
      "stateMutability": "pure",
      "type": "function"
    }
  ],
  "bytecode": "0x6080604052348015600f57600080fd5b506101c88061001f6000396000f3fe608060405234801561001057600080fd5b506004361061002b5760003560e01c80630f3d020414610030575b600080fd5b61004a600480360381019061004591906100c5565b610060565b6040516100579190610114565b60405180910390f35b600061006c8383610074565b905092915050565b60008183610082919061015e565b905092915050565b600080fd5b6000819050919050565b6100a28161008f565b81146100ad57600080fd5b50565b6000813590506100bf81610099565b92915050565b600080604083850312156100dc576100db61008a565b5b60006100ea858286016100b0565b92505060206100fb858286016100b0565b9150509250929050565b61010e8161008f565b82525050565b60006020820190506101296000830184610105565b92915050565b7f4e487b7100000000000000000000000000000000000000000000000000000000600052601160045260246000fd5b60006101698261008f565b91506101748361008f565b925082820190508082111561018c5761018b61012f565b5b9291505056fea2646970667358221220ce233bc44e3a1d1443a28ba78717dfe793cc14922c82e439df25a6cb9966633b64736f6c634300081b0033",
  "linkReferences": {},
  "deployedLinkReferences": {}
}