{
  "_format": "hh-sol-artifact-1",
  "contractName": "Sub",
  "sourceName": "contracts/Sub.sol",
  "abi": [
    {
      "inputs": [
        {
          "internalType": "uint256",
          "name": "a",
          "type": "uint256"
        },
        {
          "internalType": "uint256",
          "name": "b",
          "type": "uint256"
        }
      ],
      "name": "subtract",
      "outputs": [
        {
          "internalType": "uint256",
          "name": "res",
          "type": "uint256"
        }
      ],
      "stateMutability": "pure",
      "type": "function"
    }
  ],
  "bytecode": "0x6080604052348015600f57600080fd5b506101d18061001f6000396000f3fe608060405234801561001057600080fd5b506004361061002b5760003560e01c80633ef5e44514610030575b600080fd5b61004a600480360381019061004591906100ce565b610060565b604051610057919061011d565b60405180910390f35b6000610075828461007d90919063ffffffff16565b905092915050565b6000818361008b9190610167565b905092915050565b600080fd5b6000819050919050565b6100ab81610098565b81146100b657600080fd5b50565b6000813590506100c8816100a2565b92915050565b600080604083850312156100e5576100e4610093565b5b60006100f3858286016100b9565b9250506020610104858286016100b9565b9150509250929050565b61011781610098565b82525050565b6000602082019050610132600083018461010e565b92915050565b7f4e487b7100000000000000000000000000000000000000000000000000000000600052601160045260246000fd5b600061017282610098565b915061017d83610098565b925082820390508181111561019557610194610138565b5b9291505056fea26469706673582212205bd00676e24cb6bfdba719b43986548b6c2bc2f01243feb0ec0b1dc6a1b643ca64736f6c634300081b0033",
  "linkReferences": {},
  "deployedLinkReferences": {}
}